{
  "contractName": "BloodBank",
  "abi": [
    {
      "inputs": [],
      "payable": false,
      "stateMutability": "nonpayable",
      "type": "constructor"
    },
    {
      "anonymous": false,
      "inputs": [
        {
          "indexed": true,
          "name": "donator",
          "type": "address"
        },
        {
          "indexed": true,
          "name": "amount",
          "type": "int256"
        }
      ],
      "name": "Donate",
      "type": "event"
    },
    {
      "anonymous": false,
      "inputs": [
        {
          "indexed": false,
          "name": "num",
          "type": "int256"
        }
      ],
      "name": "SetWinnernum",
      "type": "event"
    },
    {
      "anonymous": false,
      "inputs": [
        {
          "indexed": true,
          "name": "aprovee",
          "type": "address"
        },
        {
          "indexed": true,
          "name": "amount",
          "type": "int256"
        }
      ],
      "name": "ApprovedBlood",
      "type": "event"
    },
    {
      "anonymous": false,
      "inputs": [
        {
          "indexed": true,
          "name": "user",
          "type": "address"
        },
        {
          "indexed": true,
          "name": "amount",
          "type": "int256"
        }
      ],
      "name": "Useblood",
      "type": "event"
    },
    {
      "constant": false,
      "inputs": [
        {
          "name": "btype",
          "type": "uint8"
        }
      ],
      "name": "loadDonatorBtype",
      "outputs": [],
      "payable": false,
      "stateMutability": "nonpayable",
      "type": "function"
    },
    {
      "constant": false,
      "inputs": [
        {
          "name": "ldonator",
          "type": "address"
        },
        {
          "name": "amount",
          "type": "int256"
        }
      ],
      "name": "donate",
      "outputs": [],
      "payable": false,
      "stateMutability": "nonpayable",
      "type": "function"
    },
    {
      "constant": false,
      "inputs": [
        {
          "name": "amount",
          "type": "int256"
        }
      ],
      "name": "applyforBlood",
      "outputs": [],
      "payable": false,
      "stateMutability": "nonpayable",
      "type": "function"
    },
    {
      "constant": false,
      "inputs": [],
      "name": "userSetUsed",
      "outputs": [],
      "payable": false,
      "stateMutability": "nonpayable",
      "type": "function"
    },
    {
      "constant": false,
      "inputs": [
        {
          "name": "registeree",
          "type": "address"
        }
      ],
      "name": "bloodUsedRegistration",
      "outputs": [],
      "payable": false,
      "stateMutability": "nonpayable",
      "type": "function"
    },
    {
      "constant": false,
      "inputs": [
        {
          "name": "num",
          "type": "int256"
        }
      ],
      "name": "setWinnernum",
      "outputs": [],
      "payable": false,
      "stateMutability": "nonpayable",
      "type": "function"
    },
    {
      "constant": true,
      "inputs": [],
      "name": "getDonatorInfo",
      "outputs": [
        {
          "name": "",
          "type": "uint8"
        },
        {
          "name": "",
          "type": "int256"
        },
        {
          "name": "",
          "type": "int256"
        },
        {
          "name": "",
          "type": "bool"
        },
        {
          "name": "",
          "type": "bool"
        },
        {
          "name": "",
          "type": "bool"
        }
      ],
      "payable": false,
      "stateMutability": "view",
      "type": "function"
    },
    {
      "constant": true,
      "inputs": [],
      "name": "getBloodBankInfo",
      "outputs": [
        {
          "name": "",
          "type": "int256"
        },
        {
          "name": "",
          "type": "int256"
        },
        {
          "name": "",
          "type": "int256"
        },
        {
          "name": "",
          "type": "int256"
        },
        {
          "name": "",
          "type": "int256"
        },
        {
          "name": "",
          "type": "uint256"
        }
      ],
      "payable": false,
      "stateMutability": "view",
      "type": "function"
    },
    {
      "constant": false,
      "inputs": [],
      "name": "winningAppliers",
      "outputs": [],
      "payable": false,
      "stateMutability": "nonpayable",
      "type": "function"
    }
  ],
  "bytecode": "0x608060405234801561001057600080fd5b50336000806101000a81548173ffffffffffffffffffffffffffffffffffffffff021916908373ffffffffffffffffffffffffffffffffffffffff16021790555060016006819055507f6db8e7445c28955525e46b4893f765e8f05b898b60f72b6eae34943433b4347060016040518082815260200191505060405180910390a1611311806100a06000396000f300608060405260043610610099576000357c0100000000000000000000000000000000000000000000000000000000900463ffffffff1680630cc723011461009e57806346a00791146100b55780635bf8da91146100cc578063619b3161146100fc5780637953cd57146101295780638492e5ee1461019157806393cb89e8146101df578063d73b8d2014610222578063f2afed021461026f575b600080fd5b3480156100aa57600080fd5b506100b361029c565b005b3480156100c157600080fd5b506100ca6103bc565b005b3480156100d857600080fd5b506100fa600480360381019080803560ff1690602001909291905050506106d7565b005b34801561010857600080fd5b50610127600480360381019080803590602001909291905050506107a7565b005b34801561013557600080fd5b5061013e610843565b6040518087600381111561014e57fe5b60ff168152602001868152602001858152602001841515151581526020018315151515815260200182151515158152602001965050505050505060405180910390f35b34801561019d57600080fd5b506101a66108f6565b60405180878152602001868152602001858152602001848152602001838152602001828152602001965050505050505060405180910390f35b3480156101eb57600080fd5b50610220600480360381019080803573ffffffffffffffffffffffffffffffffffffffff16906020019092919050505061098b565b005b34801561022e57600080fd5b5061026d600480360381019080803573ffffffffffffffffffffffffffffffffffffffff16906020019092919080359060200190929190505050610d14565b005b34801561027b57600080fd5b5061029a60048036038101908080359060200190929190505050610edb565b005b60001515600160003373ffffffffffffffffffffffffffffffffffffffff1673ffffffffffffffffffffffffffffffffffffffff16815260200190815260200160002060030160029054906101000a900460ff1615151415156102fe57600080fd5b60011515600160003373ffffffffffffffffffffffffffffffffffffffff1673ffffffffffffffffffffffffffffffffffffffff16815260200190815260200160002060030160019054906101000a900460ff16151514151561036057600080fd5b60018060003373ffffffffffffffffffffffffffffffffffffffff1673ffffffffffffffffffffffffffffffffffffffff16815260200190815260200160002060030160026101000a81548160ff021916908315150217905550565b6000806000806000809054906101000a900473ffffffffffffffffffffffffffffffffffffffff1673ffffffffffffffffffffffffffffffffffffffff163373ffffffffffffffffffffffffffffffffffffffff1614151561041d57600080fd5b600654935060078054905060065410151561043b5760078054905093505b600092505b838360ff161215610602576104536110f7565b9150600180600060078581548110151561046957fe5b906000526020600020906003020160000160009054906101000a900473ffffffffffffffffffffffffffffffffffffffff1673ffffffffffffffffffffffffffffffffffffffff1673ffffffffffffffffffffffffffffffffffffffff16815260200190815260200160002060030160016101000a81548160ff0219169083151502179055506001600060078481548110151561050257fe5b906000526020600020906003020160000160009054906101000a900473ffffffffffffffffffffffffffffffffffffffff1673ffffffffffffffffffffffffffffffffffffffff1673ffffffffffffffffffffffffffffffffffffffff1681526020019081526020016000206002015460078381548110151561058157fe5b906000526020600020906003020160000160009054906101000a900473ffffffffffffffffffffffffffffffffffffffff1673ffffffffffffffffffffffffffffffffffffffff167f88f12986fc9fe371c7d220d1e821cb904c71bc68d344fad98ef22683d2b4f2af60405160405180910390a38280600101935050610440565b600090505b6007805490508110156106bc5760006001600060078481548110151561062957fe5b906000526020600020906003020160000160009054906101000a900473ffffffffffffffffffffffffffffffffffffffff1673ffffffffffffffffffffffffffffffffffffffff1673ffffffffffffffffffffffffffffffffffffffff16815260200190815260200160002060030160006101000a81548160ff0219169083151502179055508080600101915050610607565b600760006106ca919061125f565b4260088190555050505050565b6000809054906101000a900473ffffffffffffffffffffffffffffffffffffffff1673ffffffffffffffffffffffffffffffffffffffff163373ffffffffffffffffffffffffffffffffffffffff161415151561073357600080fd5b8060ff16600381111561074257fe5b600160003373ffffffffffffffffffffffffffffffffffffffff1673ffffffffffffffffffffffffffffffffffffffff16815260200190815260200160002060000160006101000a81548160ff0219169083600381111561079f57fe5b021790555050565b6000809054906101000a900473ffffffffffffffffffffffffffffffffffffffff1673ffffffffffffffffffffffffffffffffffffffff163373ffffffffffffffffffffffffffffffffffffffff1614151561080257600080fd5b806006819055507f6db8e7445c28955525e46b4893f765e8f05b898b60f72b6eae34943433b43470816040518082815260200191505060405180910390a150565b6000806000806000806000600160003373ffffffffffffffffffffffffffffffffffffffff1673ffffffffffffffffffffffffffffffffffffffff16815260200190815260200160002090508060000160009054906101000a900460ff16816001015482600201548360030160009054906101000a900460ff168460030160019054906101000a900460ff168560030160029054906101000a900460ff1696509650965096509650965050909192939495565b60008060008060008060026000600381111561090e57fe5b60048110151561091a57fe5b015460026001600381111561092b57fe5b60048110151561093757fe5b0154600280600381111561094757fe5b60048110151561095357fe5b0154600260038081111561096357fe5b60048110151561096f57fe5b0154600654600854955095509550955095509550909192939495565b6000809054906101000a900473ffffffffffffffffffffffffffffffffffffffff1673ffffffffffffffffffffffffffffffffffffffff163373ffffffffffffffffffffffffffffffffffffffff161415156109e657600080fd5b600160008273ffffffffffffffffffffffffffffffffffffffff1673ffffffffffffffffffffffffffffffffffffffff16815260200190815260200160002060030160029054906101000a900460ff161515610a4157600080fd5b600160008273ffffffffffffffffffffffffffffffffffffffff1673ffffffffffffffffffffffffffffffffffffffff168152602001908152602001600020600201548173ffffffffffffffffffffffffffffffffffffffff167ff73d414269020a859af5bba2636b896125119e254f8f9788e896a2b9c05a8da160405160405180910390a3600160008273ffffffffffffffffffffffffffffffffffffffff1673ffffffffffffffffffffffffffffffffffffffff168152602001908152602001600020600201546002600160008473ffffffffffffffffffffffffffffffffffffffff1673ffffffffffffffffffffffffffffffffffffffff16815260200190815260200160002060000160009054906101000a900460ff166003811115610b6757fe5b600481101515610b7357fe5b0160008282540392505081905550600160008273ffffffffffffffffffffffffffffffffffffffff1673ffffffffffffffffffffffffffffffffffffffff16815260200190815260200160002060020154600160008373ffffffffffffffffffffffffffffffffffffffff1673ffffffffffffffffffffffffffffffffffffffff168152602001908152602001600020600101600082825403925050819055506000600160008373ffffffffffffffffffffffffffffffffffffffff1673ffffffffffffffffffffffffffffffffffffffff16815260200190815260200160002060030160026101000a81548160ff0219169083151502179055506000600160008373ffffffffffffffffffffffffffffffffffffffff1673ffffffffffffffffffffffffffffffffffffffff16815260200190815260200160002060030160016101000a81548160ff0219169083151502179055506000600160008373ffffffffffffffffffffffffffffffffffffffff1673ffffffffffffffffffffffffffffffffffffffff1681526020019081526020016000206002018190555050565b6000809054906101000a900473ffffffffffffffffffffffffffffffffffffffff1673ffffffffffffffffffffffffffffffffffffffff163373ffffffffffffffffffffffffffffffffffffffff16141515610d6f57600080fd5b6000809054906101000a900473ffffffffffffffffffffffffffffffffffffffff1673ffffffffffffffffffffffffffffffffffffffff168273ffffffffffffffffffffffffffffffffffffffff1614151515610dcb57600080fd5b80600160008473ffffffffffffffffffffffffffffffffffffffff1673ffffffffffffffffffffffffffffffffffffffff16815260200190815260200160002060010160008282540192505081905550806002600160008573ffffffffffffffffffffffffffffffffffffffff1673ffffffffffffffffffffffffffffffffffffffff16815260200190815260200160002060000160009054906101000a900460ff166003811115610e7957fe5b600481101515610e8557fe5b0160008282540192505081905550808273ffffffffffffffffffffffffffffffffffffffff167fd1e782ce42f40dfeb7a8377aa2b8b541b4fe150a326d9988dbec73ad15c16e8560405160405180910390a35050565b60008060009054906101000a900473ffffffffffffffffffffffffffffffffffffffff1673ffffffffffffffffffffffffffffffffffffffff163373ffffffffffffffffffffffffffffffffffffffff1614151515610f3957600080fd5b600160003373ffffffffffffffffffffffffffffffffffffffff1673ffffffffffffffffffffffffffffffffffffffff16815260200190815260200160002090508060030160019054906101000a900460ff16151515610f9857600080fd5b8060030160009054906101000a900460ff16151515610fb657600080fd5b8160028260000160009054906101000a900460ff166003811115610fd657fe5b600481101515610fe257fe5b015412151515610ff157600080fd5b60018160030160006101000a81548160ff02191690831515021790555081816002018190555060076060604051908101604052803373ffffffffffffffffffffffffffffffffffffffff168152602001848460010154038152602001600015158152509080600181540180825580915050906001820390600052602060002090600302016000909192909190915060008201518160000160006101000a81548173ffffffffffffffffffffffffffffffffffffffff021916908373ffffffffffffffffffffffffffffffffffffffff1602179055506020820151816001015560408201518160020160006101000a81548160ff0219169083151502179055505050505050565b6000806000600260038081111561110a57fe5b60048110151561111657fe5b0154600280600381111561112657fe5b60048110151561113257fe5b015460026001600381111561114357fe5b60048110151561114f57fe5b015460026000600381111561116057fe5b60048110151561116c57fe5b01546000030303039150600090505b600780549050811015611221578160078281548110151561119857fe5b9060005260206000209060030201600101541380156111e85750600015156007828154811015156111c557fe5b906000526020600020906003020160020160009054906101000a900460ff161515145b15611214576007818154811015156111fc57fe5b90600052602060002090600302016001015491508092505b808060010191505061117b565b600160078481548110151561123257fe5b906000526020600020906003020160020160006101000a81548160ff021916908315150217905550505090565b50805460008255600302906000526020600020908101906112809190611283565b50565b6112e291905b808211156112de57600080820160006101000a81549073ffffffffffffffffffffffffffffffffffffffff021916905560018201600090556002820160006101000a81549060ff021916905550600301611289565b5090565b905600a165627a7a72305820f017679003fbb2c9faba09a61cfc24d0f2fbaa17252a7b5b513b2884ec3ef0500029",
  "source": "pragma solidity ^0.4.24;\n\n// This is just a simple example of a coin-like contract.\n// It is not standards compatible and cannot be expected to talk to other\n// coin/token contracts. If you want to create a standards-compliant\n// token, see: https://github.com/ConsenSys/Tokens. Cheers!\n\ncontract BloodBank {\n   \n    enum BloodType {A, B, AB, O}\n   \n    struct Donator {\n        BloodType bType;\n        int quota;\n        int approval;\n        bool applied;\n        bool approved;\n        bool used;\n    }\n    \n    struct WaitingApplier {\n        address applier;\n        int priority;\n        bool approved;\n    }\n\n    address chairperson;\n    mapping(address => Donator) donators;\n    int[4] bBank;\n    int winnernum;\n    WaitingApplier[] waiting;\n    uint lastupdated;\n   \n    event Donate(\n        address indexed donator,\n        int indexed amount\n    );\n   \n    event SetWinnernum(\n        int num\n    );\n   \n    event ApprovedBlood(\n        address indexed aprovee,\n        int indexed amount\n    );\n    \n    event Useblood(\n        address indexed user,\n        int indexed amount\n    );\n\n    constructor() public {\n        chairperson = msg.sender;\n        winnernum = 1;\n        emit SetWinnernum(1);\n    }\n\n    \n    function loadDonatorBtype(uint8 btype) public {\n        require(msg.sender != chairperson);\n        donators[msg.sender].bType = BloodType(btype);\n    }\n\n   \n    function donate(address ldonator, int amount) public {\n        require(msg.sender == chairperson);\n        require(ldonator != chairperson);\n        donators[ldonator].quota += amount;\n        bBank[uint(donators[ldonator].bType)] += amount;\n        emit Donate(ldonator, amount);\n    }\n   \n    function applyforBlood(int amount) public {\n        require(msg.sender != chairperson);\n        Donator storage sender = donators[msg.sender];\n        require(!sender.approved);\n        require(!sender.applied);\n        require(bBank[uint(sender.bType)] >= amount);\n        sender.applied = true;\n        sender.approval = amount;\n        waiting.push(WaitingApplier({\n            applier:msg.sender,\n            priority:sender.quota - amount,\n            approved:false\n        }));\n    }\n\n    function userSetUsed() public {\n        require(donators[msg.sender].used == false);\n        require(donators[msg.sender].approved == true);\n        donators[msg.sender].used = true;\n    }\n\n    function bloodUsedRegistration(address registeree) public {\n        require(msg.sender == chairperson);\n        require(donators[registeree].used);\n        emit Useblood(registeree, donators[registeree].approval);\n        bBank[uint(donators[registeree].bType)] -= donators[registeree].approval;\n        donators[registeree].quota -= donators[registeree].approval;\n        donators[registeree].used = false;\n        donators[registeree].approved = false;\n        donators[registeree].approval = 0;\n        \n    }\n\n    function winningApplier() internal returns (uint _winningApplier) {\n        int winningpriority = -bBank[uint(BloodType.A)]-bBank[uint(BloodType.B)]-bBank[uint(BloodType.AB)]-bBank[uint(BloodType.O)];\n        for (uint i = 0; i < waiting.length; i++)\n            if (waiting[i].priority > winningpriority&&waiting[i].approved == false) {\n                winningpriority = waiting[i].priority;\n                _winningApplier = i;\n            }\n        waiting[_winningApplier].approved = true;\n    }\n   \n    function setWinnernum(int num) public {\n        require(msg.sender == chairperson);\n        winnernum = num;\n        emit SetWinnernum(num);\n    }\n    \n    function getDonatorInfo() public view returns (BloodType, int, int, bool, bool, bool){\n        Donator storage sender = donators[msg.sender];\n        return (sender.bType, sender.quota, sender.approval, sender.applied, sender.approved, sender.used);\n    }\n    \n    function getBloodBankInfo() public view returns (int, int, int, int, int, uint){\n        return (bBank[uint(BloodType.A)], bBank[uint(BloodType.B)], bBank[uint(BloodType.AB)], bBank[uint(BloodType.O)], winnernum, lastupdated);\n    }\n    \n    function winningAppliers() public {\n        require(msg.sender == chairperson);\n        int w = winnernum;\n        if(uint(winnernum) >= waiting.length){\n            w = int(waiting.length);\n        }\n        for(uint8 i = 0; i < w; i++){\n            uint winApplier = winningApplier();\n            donators[waiting[winApplier].applier].approved = true;\n            emit ApprovedBlood(waiting[winApplier].applier, donators[waiting[winApplier].applier].approval);\n        }\n        for (uint j = 0; j < waiting.length; j++){\n            donators[waiting[j].applier].applied = false;\n        }\n        delete waiting;\n        lastupdated = now;\n    }\n}\n",
  "sourcePath": "D:\\bloodku\\contracts\\BloodBank.sol",
  "compiler": {
    "name": "solc",
    "version": "0.4.24+commit.e67f0147.Emscripten.clang"
  },
  "schemaVersion": "2.0.1",
  "updatedAt": "2018-12-28T02:48:30.611Z"
}